:020000040800F2
:100000007018022099020008BD020008BF02000813
:10001000C1020008C3020008C50200080000000079
:10002000000000000000000000000000C7020008FF
:10003000C902000800000000CB020008F94C0008CB
:10004000CF020008CF020008CF020008CF0200084C
:10005000CF020008CF020008CF020008CF0200083C
:10006000CF020008CF020008CF020008CF0200082C
:10007000CF020008CF020008CF020008CF0200081C
:10008000CF020008CF020008CF020008CF0200080C
:10009000CF020008CF020008CF020008CF020008FC
:1000A000CF020008CF020008CF020008CF020008EC
:1000B000CF020008CF020008114F0008CF0200084D
:1000C000CF020008CF020008CF020008CF020008CC
:1000D000CF020008CF02000839540008D5540008A8
:1000E000CF020008CF020008CF020008CF020008AC
:1000F000CF020008CF020008CF020008CF0200089C
:10010000CF020008CF020008CF020008CF0200088B
:10011000CF020008CF020008CF020008CF0200087B
:10012000CF020008CF020008CF020008CF0200086B
:10013000CF020008CF020008CF020008CF0200085B
:10014000CF020008CF020008CF020008CF0200084B
:10015000CF020008CF020008CF020008CF0200083B
:10016000CF020008CF020008CF020008CF0200082B
:10017000CF020008CF020008CF02000800000000F4
:10018000CF020008CF020008CF020008CF0200080B
:10019000CF020008CF020008CF020008CF020008FB
:1001A000CF020008CF020008CF020008CF020008EB
:1001B000CF020008CF020008CF020008CF020008DB
:1001C000CF020008CF02000800000000CF020008A4
:1001D000CF020008CF020008CF020008CF020008BB
:1001E000CF020008CF020008CF020008CF020008AB
:1001F000CF020008CF02000800F002F800F03CF83F
:100200000AA090E8000C82448344AAF10107DA4571
:1002100001D100F031F8AFF2090EBAE80F0013F087
:10022000010F18BFFB1A43F00103184720550000C7
:1002300040550000103A24BF78C878C1FAD8520758
:1002400024BF30C830C144BF04680C607047000050
:100250000023002400250026103A28BF78C1FBD8CF
:10026000520728BF30C148BF0B6070471FB505F06B
:1002700063FA1FBD10B510BD00F0E4F81146FFF79A
:10028000F5FF05F03EFA00F002F903B4FFF7F2FFC4
:1002900003BC05F0D3F90000DFF84000016841F429
:1002A00070010160BFF34F8FDFF83400016821F067
:1002B00040410160BFF36F8F0A480047FEE7FEE749
:1002C000FEE7FEE7FEE7FEE7FEE7FEE7FEE7FEE706
:1002D00005480649044A064B7047000088ED00E0D7
:1002E00034EF00E0F90100087010022070180220BD
:1002F000701002207047032A40F2308010F0030C87
:1003000000F0158011F8013BBCF1020F624498BF68
:1003100011F801CB00F8013B38BF11F8013BA2F105
:10032000040298BF00F801CB38BF00F8013B11F080
:10033000030300F02580083AC0F0088051F8043B20
:10034000083A51F804CBA0E80810F5E7121D5CBF8D
:1003500051F8043B40F8043BAFF30080D20724BFC0
:1003600011F8013B11F801CB48BF11F8012B24BF54
:1003700000F8013B00F801CB48BF00F8012B7047A3
:1003800010B5203AC0F00B80B1E81850203AA0E830
:100390001850B1E81850A0E81850BFF4F5AF5FEA64
:1003A000027C24BFB1E81850A0E8185044BF18C917
:1003B00018C0BDE810405FEA827C24BF51F8043BBE
:1003C00040F8043B08BF7047D20728BF31F8023B12
:1003D00048BF11F8012B28BF20F8023B48BF00F8A6
:1003E000012B70474FF0000200B513469446964625
:1003F000203922BFA0E80C50A0E80C50B1F1200138
:10040000BFF4F7AF090728BFA0E80C5048BF0CC0E5
:100410005DF804EB890028BF40F8042B08BF704743
:1004200048BF20F8022B11F0804F18BF00F8012BB5
:10043000704770477047704770470000004870472A
:10044000101002207546FFF7F9FFAE460500694619
:10045000534620F00700854618B020B5FFF738FF57
:10046000BDE820404FF000064FF000074FF00008B5
:100470004FF0000B21F00701AC46ACE8C009ACE836
:10048000C009ACE8C009ACE8C0098D46704710B59A
:100490000446AFF300802046BDE81040FFF7F5BEEC
:1004A00070B50024002545F0800500224FF48061DE
:1004B0000A4801F0EBFA284604F060F9002004F045
:1004C0005DF9044601229102044801F0DFFAFA2C9A
:1004D00001D1012400E00024204670BD0018024034
:1004E00010B500F009F8012804D1FFF7D9FF012861
:1004F00000D110BD0020FCE770B50024002545F0B8
:100500008005002210210B4801F0C0FA284604F0B3
:1005100035F9002004F032F9044601221021054883
:1005200001F0B4FA0F2C01D1012400E00024204690
:1005300070BD00000014024010B5B621142004F074
:1005400041FA642005F09EF80C210F2004F03AFADD
:100550000A2005F097F80F21102004F033FA0A2042
:1005600005F090F80021112004F02CFA0A2005F083
:1005700089F88021132004F025FA0A2005F082F87A
:1005800080213E2004F01EFA0A2005F07BF8B621F7
:10059000142004F017FA642005F074F800210F20ED
:1005A00004F010FA0A2005F06DF88121102004F003
:1005B00009FA0A2005F066F80021112004F002FA79
:1005C0000A2005F05FF880213E2004F0FBF90A20A4
:1005D00005F058F8A021152004F0F4F90A2005F0E0
:1005E00051F810BD2DE9F04104460D464FF00008CA
:1005F0000027002646F0800600224FF4806136482E
:1006000001F044FA46F00206304604F0B7F800BFA5
:100610000BE0002004F0B2F804F808000A2005F00E
:100620003BF808F1010000F0FF08B8F1060FF0DB1D
:100630002078617840EA012028490880084600882F
:1006400000110880A078E17840EA01202349488021
:1006500008464088001148802079617940EA0120ED
:100660001E498880084680880011888001229102F6
:10067000194801F00BFA00221021194801F006FA7E
:1006800046F00206304604F079F8002708E0002022
:1006900004F074F8E8550A2004F0FEFF781CC7B295
:1006A000062FF4DB2878697840EA01200D4908809C
:1006B000A878E97840EA01200A49488028796979D0
:1006C00040EA01200749888001221021044801F0F6
:1006D000DDF9BDE8F081000000180240560002205C
:1006E000001402405C00022010B5092302221021F0
:1006F0004FF4D87004F0C8FAD82004F0A1FF02F03B
:1007000013FE02F047FE03F0B7FF642004F0BAFFC7
:1007100004F05AF8642004F0B5FF04F0CFF8642028
:1007200004F0B0FF03F048F802F0FCFB642004F092
:10073000A9FF02F07DF928B100224021254801F0EF
:1007400015F804E001224021224801F00FF802F0E0
:1007500097FA28B1002202211F4801F007F804E0AF
:10076000012202211C4801F001F8FFF7B9FE38B15F
:10077000FFF7E2FE00228021164800F0F7FF04E0B8
:1007800001228021134800F0F1FF642004F07AFF79
:1007900002F05EFD02F04EFD00F038FE03F054FD65
:1007A00004F00AFA03F06AF942F22832132145F202
:1007B000E37004F03BFBFF220849094804F090FF76
:1007C000FF220849084804F08BFF00200749087001
:1007D000487010BD0008024000040240AC0D022029
:1007E000A00D0220AB0E0220940D0220000002207A
:1007F00010B500BF00BF00BF00BF00BFBFF34F8FE9
:1008000000BF00BF00BF00BF00BF00BFBFF36F8FBE
:1008100000BF00BF00BF00201149086011480068F8
:1008200040F400300F49086000BF00BF00BFBFF3B5
:100830004F8F00BF00BF00BF00BF00BF00BFBFF3AE
:100840006F8F00BF00BF00BF00BF03F0FDF9044879
:100850004C30006840F0040001494C31086010BD84
:1008600050EF00E014ED00E010B586B0D5480078F8
:10087000D549097890FBF1F201FB1201D2480078CA
:10088000401E814202D10120D0490870CD48007835
:10089000CF49097890FBF1F201FB1201CC480078B6
:1008A000401E814202D10120CA490870C548007823
:1008B000C949097890FBF1F201FB1201C6480078A2
:1008C000801E814202D10120C4490870BD480078D1
:1008D000C349097890FBF1F201FB1201C04800788E
:1008E000401E814202D10120BE490870B5480078FF
:1008F000BD49097890FBF1F201FB1201BA4800787A
:10090000401E814202D10120B8490870AD480078EC
:10091000B749097890FBF1F201FB1201B448007865
:10092000801E814202D10120B2490870A54800789A
:10093000B149097890FBF1F201FB1201AE48007851
:10094000801E814202D10120AC4908709D48007888
:10095000AB49097890FBF1F201FB1201A84800783D
:10096000C01E814202D10120A64908709548007836
:10097000A549097890FBF1F201FB1201A248007829
:10098000C01E814204D1A1480078401C9F490870D4
:100990008C480078401CC0B28A490870C82801DD24
:1009A000002008709A48007840B19A480178984829
:1009B000007800F02DFA00209549087096480078DC
:1009C00048B1002094490870944801789448007810
:1009D00000F0F0F9F4E09348007860B1002091490C
:1009E00008704FF4C87364224FF49671009004208D
:1009F00000F0A6FCE4E07B48007870B10020794963
:100A000008700022114610469FED871ADFED860A16
:100A10009FED850A00F0BAFBD2E07A480078F0B189
:100A20000020784908708148D0ED051A9FED802A92
:100A300061EE821AB0EE611AD0ED041A9FED7C2AA5
:100A400061EE821AF0EE610AD0ED031A9FED782A6A
:100A500061EE821AB0EE610A00F01CFBB0E05F4864
:100A6000007828B100205D49087000F03BFCA7E049
:100A700056480078E8B30020544908706D48B0F932
:100A800004006C49B1F90220B1F900106A4B93EDF2
:100A9000050ABDEEC00A10EE103A1BB2CDE90131D5
:100AA000CDE90320644890ED040ABDEEC00A10EEC3
:100AB000100A00B2604C009094ED030ABDEEC00A2B
:100AC00010EE104A23B25C4C94ED020ABDEEC00A4F
:100AD00010EE104A22B2584C94ED010ABDEEC00A45
:100AE00010EE104A21B2544C94ED000ABDEEC00A3B
:100AF00000E005E010EE104A20B200F0ADF95FE032
:100B000034480078B0B10020324908704B4A92ED69
:100B1000010ADFED4B0A20EE200ABCEEC00A10EEFF
:100B2000102A91B2474A1268642302FB03F000F0D6
:100B300061FA45E02D48007818B100202B49087073
:100B40003EE02C48007818B100202A49087037E0B0
:100B50002A48007818B100202849087030E03A4847
:100B6000007818B100203849087029E0374800782B
:100B700018B100203549087022E03548007818B1D6
:100B80000020334908701BE03248007818B100207B
:100B90003049087014E03048007818B100202E4920
:100BA00008700DE02D48007818B100202B4908701E
:100BB00006E016480078022802D100201349087088
:100BC00006B010BDB6000220B7000220A700022028
:100BD000B8000220A8000220B9000220B3000220C1
:100BE000BA000220A6000220BB000220AF000220B3
:100BF000BC000220B1000220BD000220B200022091
:100C0000BE000220B4000220BF000220B500022076
:100C1000A2000220A3000220A4000220A1000220C2
:100C2000A0000220A50002200000000050080220C1
:100C300000007A44620002202C080220C400022036
:100C40000000C84228000220A9000220AA000220B9
:100C5000AB000220AC000220AD000220AE0002205A
:100C600010B50023002200BF04E0845C1C44E3B202
:100C7000541CE2B24C1E9442F7DC441814F8014CA8
:100C80009C4200D010BD0478AA2C02D14478AF2C2D
:100C900000D0F7E78478012C12D10479012C0FD011
:100CA0000479022C0CD00479032C09D00479042C8B
:100CB00006D00479212C02DB0479262C00DD00BF4C
:100CC0008478022C00D100BF00BFDBE710B50446DA
:100CD0003448007838B9AA2C05D101203149087070
:100CE000314804705DE02F480078012807D1AF2C0F
:100CF00005D102202B4908702B48447051E0294847
:100D00000078022807D1F12C05DA03202549087064
:100D10002548847045E02348007803280CD1322C04
:100D20000ADA04201F4908701F48C4701F48047065
:100D300000201F49087034E01A480078042819D1AF
:100D40001A480078002815DD18480078401E174919
:100D500008701748007816490978491C144A117020
:100D6000001D11490C5411480078D0B905200D49D7
:100D7000087016E00B48007805280FD100200949BB
:100D800008700B480078001D07490C54084800788B
:100D9000401DC1B20448FFF763FF02E00020014993
:100DA000087010BDC2000220DC0F0220C00002202B
:100DB000C10002202DE9F04105460E46002700241F
:100DC000AA200D4908704870EF2088700220C87072
:100DD00008460571467100BF05E00748005D3844CC
:100DE000C7B2601CC4B2062CF7DB03488771072129
:100DF00000F004F8BDE8F081AA0F022070B50546A6
:100E00000C462146014804F0CBFB70BDAA0F02201E
:100E10002DE9F04105460E4600270024AA200D4981
:100E200008704870EE2088700220C870084605716E
:100E3000467100BF05E00748005D3844C7B2601C3A
:100E4000C4B2062CF7DB034887710721FFF7D6FFF2
:100E5000BDE8F081AA0F02202DE9F84F06460F46A3
:100E600090469946DDF828B00024A2460025AA2223
:100E70002146641C5E4842542146641C42540222AE
:100E80002146641C425400222146641C42540096B0
:100E90009DF801202146641C42549DF80020214603
:100EA000641C425400979DF801202146641C425462
:100EB0009DF800202046611CCCB24D490A54CDF863
:100EC00000809DF801202046611CCCB248490A549C
:100ED0009DF800202046611CCCB245490A54CDF84B
:100EE00000909DF801202046611CCCB240490A5474
:100EF0009DF800202046611CCCB23D490A54CDF833
:100F000000B09DF801202046611CCCB238490A543B
:100F10009DF800202046611CCCB235490A540B983C
:100F200000909DF801202046611CCCB230490A5443
:100F30009DF800202046611CCCB22D490A540C9823
:100F400000909DF801202046611CCCB228490A542B
:100F50009DF800202046611CCCB225490A540D980A
:100F600000909DF801202046611CCCB220490A5413
:100F70009DF800202046611CCCB21D490A540E98F1
:100F800000909DF801202046611CCCB218490A54FB
:100F90009DF800202046611CCCB215490A5400205F
:100FA00000909DF801202146601CC4B210484254B4
:100FB0009DF800202046611CCCB20D490A54201F28
:100FC000C87000BF06E00A48405D504400F0FF0AC8
:100FD000681CC5B2A542F6DB2046611CCCB20449B0
:100FE00001F800A021460248FFF708FFBDE8F88F8E
:100FF000AA0F022073B5002400260025AA2221464C
:10100000641C234842542146641C42540722214652
:10101000641C425400222146641C42549DF8032063
:101020002146641C42549DF802202146641C42540F
:101030009DF801202146641C42549DF80020204662
:10104000611CCCB212490A549DF805202046611C4F
:10105000CCB20F490A549DF804202046611CCCB242
:101060000B490A54201FC87000BF05E00848405DC6
:101070003044C6B2681CC5B2A542F7DB2046611CED
:10108000CCB203490E5421460148FFF7B7FE7CBDA0
:10109000AA0F022070B52DED048B82B0B0EE408B0C
:1010A000B0EE419A002400260025AA222146641CA5
:1010B000344842542146641C42540B222146641C8D
:1010C000425400222146641C42549FED2F0A28EE10
:1010D000000ABDEEC00A10EE100A00B201909DF8A1
:1010E00005202146641C274842549DF804202146CF
:1010F000641C42549FED240A28EE800ABDEEC00A0B
:1011000010EE100A00B201909DF805202146641CE3
:101110001C4842549DF804202046611CCCB2194959
:101120000A549FED190A29EE000ABDEEC00A10EE1E
:10113000100A00B201909DF805202046611CCCB237
:1011400010490A549DF804202046611CCCB20D4978
:101150000A54201FC87000BF05E00A48405D3044B3
:10116000C6B2681CC5B2A542F7DB2046611CCCB2F2
:1011700004490E5421460348FFF740FE02B0BDEC7F
:10118000048B70BDAA0F0220CDCCCC3D2DE9F043DD
:101190002DED048B83B0B0EE408BB0EE419A064645
:1011A0000F46904600240196A1460025AA2221461A
:1011B000641C4A4842542146641C42540122214680
:1011C000641C425400222146641C42549FED440A90
:1011D00028EE000ABDEEC00A10EE100A00B202901E
:1011E0009DF809202146641C3C4842549DF8082083
:1011F0002146641C42549FED3A0A28EE800ABDEE57
:10120000C00A10EE100A00B202909DF80920214693
:10121000641C324842549DF808202046611CCCB220
:101220002E490A549FED2E0A29EE000ABDEEC00A8F
:1012300010EE100A00B202909DF809202046611CB1
:10124000CCB226490A549DF808202046611CCCB235
:1012500022490A549DF807202046611CCCB21F4940
:101260000A549DF806202046611CCCB21B490A5442
:101270009DF805202046611CCCB218490A549DF8FF
:1012800004202046611CCCB214490A542046611C3B
:10129000CCB212490F542046611CCCB20F4901F860
:1012A0000080201FC87000BF06E00C48405D484425
:1012B00000F0FF09681CC5B2A542F6DB2046611CA0
:1012C000CCB2064901F8009021460448FFF796FD8C
:1012D00003B0BDEC048BBDE8F0830000AA0F022030
:1012E0000000C84270B5002400260025AA2221462D
:1012F000641C124842542146641C4254F122214687
:10130000641C425400222146641C4254201F0B4995
:10131000C87000BF05E00948405D3044C6B2681C93
:10132000C5B2A542F7DB2046611CCCB203490E547E
:1013300021460248FFF762FD70BD0000AA0F02209F
:101340002DE9FF410646002400270025AA22214658
:10135000641C2D4842542146641C425400222146FC
:10136000641C42542146641C42542146641C465469
:101370009DF805202146641C42549DF80420214616
:10138000641C42549DF809202046611CCCB21E49C1
:101390000A549DF808202046611CCCB21A490A5410
:1013A0009DF80D202046611CCCB217490A549DF8C7
:1013B0000C202046611CCCB213490A549DF8292008
:1013C0002046611CCCB210490A549DF828202046C2
:1013D000611CCCB20C490A54201FC87000BF05E044
:1013E0000948405D3844C7B2681CC5B2A542F7DB66
:1013F0002046611CCCB204490F5421460248FFF735
:10140000FDFCBDE8FF810000AA0F022010B588B0E6
:101410000020059006900790049045A103C9CDE9EE
:10142000020100200090019000222021424800F09B
:101430002DFB9F2003F01CFA002406E0002003F09F
:1014400017FA05A90855601CC4B2092CF6DB012265
:101450002021394800F01AFB384800789DF8141014
:10146000884263D1354840789DF8151088425DD197
:10147000324880789DF81610884257D12F48C0789E
:101480009DF81710884251D12C4800799DF818100A
:1014900088424BD1294840799DF81910884245D19E
:1014A000264880799DF81A1088423FD12348C07998
:1014B0009DF81B10884239D12048007A9DF81C10F5
:1014C000884233D1AF214FF4005000F091F802AAC6
:1014D00005214FF4405000F0D3F80A2004F0D2F870
:1014E0004FF4005000F02CF804906A4605214FF4A8
:1014F000405000F04DF89DF81000AF2814D19DF831
:1015000000009DF8081088420ED19DF801009DF85A
:101510000910884208D19DF804009DF80C108842FB
:1015200002D1012008B010BD0020FBE70020F9E740
:10153000AAABFEEFDD000000001402404257000895
:101540002DE9F0410446C4F30746C4F3072704F02D
:10155000FF08002220210D4800F098FA032003F034
:1015600087F9304603F084F9384603F081F94046A4
:1015700003F07EF9002003F07BF9054601222021CB
:10158000024800F083FA2846BDE8F08100140240CA
:101590002DE9F04704460E461546C4F30748C4F348
:1015A000072904F0FF0A00222021104800F06EFAFB
:1015B000032003F05DF9404603F05AF9484603F072
:1015C00057F9504603F054F9002705E0F02003F0E6
:1015D0004FF905F8010B7F1CB742F7D301222021F8
:1015E000024800F053FABDE8F08700000014024002
:1015F0002DE9F04104460D46C4F30746C4F307271E
:1016000004F0FF08002220211C4800F03FFA0620C9
:1016100003F02EF901222021184800F037FA0220A9
:1016200004F03AF800222021144800F02FFA02209A
:1016300003F01EF9304603F01BF9384603F018F9A1
:10164000404603F015F9284603F012F90122202143
:101650000A4800F01BFA022004F01EF800222021A4
:10166000064800F013FA042003F002F901222021B9
:10167000024800F00BFABDE8F081000000140240BF
:101680002DE9F04704460E461546C4F30748C4F357
:10169000072904F0FF0A002220211F4800F0F6F974
:1016A000062003F0E5F8012220211B4800F0EEF9A6
:1016B000022003F0F1FF00222021174800F0E6F994
:1016C000022003F0D5F8404603F0D2F8484603F074
:1016D000CFF8504603F0CCF8002704E015F8010BD2
:1016E00003F0C6F87F1CB742F8D3012220210A4834
:1016F00000F0CCF9022003F0CFFF002220210648A1
:1017000000F0C4F9042003F0B3F8012220210248BC
:1017100000F0BCF9BDE8F0870014024030B5CC10F1
:1017200000F1200353F824304C07E50E0F24AC40A1
:10173000A343CD1000F1200444F82530CC1000F173
:10174000200353F824304C07E40E02FA04F4234338
:10175000CD1000F1200444F8253030BD0246106958
:10176000084008B1012070470020FCE702F00103A7
:101770000BB1816101E00B04836170472DE9F047F3
:101780000C46DDE90867002100258C4600BF60E0BB
:101790004FF0010808FA01F504EA050CAC4557D1F1
:1017A000D0F800804FEA410A4FF0030909FA0AF91C
:1017B00028EA0908C0F80080D0F800804FEA410903
:1017C00002FA09F948EA0908C0F80080012A01D0A4
:1017D000022A27D1D0F808804FEA410A4FF00309C6
:1017E00009FA0AF928EA0908C0F80880D0F8088040
:1017F0004FEA410906FA09F948EA0908C0F80880E1
:10180000D0F804904FF0010808FA01F829EA080915
:10181000C0F80490D0F8048003FA01F948EA0908F6
:10182000C0F80480D0F80C804FEA410A4FF0030959
:1018300009FA0AF928EA0908C0F80C80D0F80C80E7
:101840004FEA410907FA09F948EA0908C0F80C808B
:10185000491C10299CD3BDE8F08731B5002400F065
:101860001BF9044600BF00F017F9001B00998842DD
:10187000F9D338BDF8B502460B46002100250024F7
:10188000002000BFE4E0012606FA01F51E6806EA22
:101890000504AC4271D15E68022E02D05E68122E41
:1018A00013D1CF0802F1200656F827004E07F70E95
:1018B0000F26BE40B0434F07FF0E1E69BE403043A7
:1018C000CF0802F1200646F8270010684F000326D3
:1018D000BE40B0431E7906F003064F00BE403043C1
:1018E00010605E68012E08D05E68022E05D05E682A
:1018F000112E02D05E68122E13D190684F0003267D
:10190000BE40B0434F00DE68BE4030439060506838
:1019100001268E40B0431E79C6F300168E40304338
:101920005060D0684F000326BE40B0434F009E6811
:10193000BE403043D0605E6806F08056B6F1805FEE
:10194000A8D100BF444E366846F48046424F3E6000
:101950003E46366806F48046009600BF00BF3F4E04
:101960008F0856F827008E07370F0F26BE40B0436A
:101970003B4EB24202D100262EE068E0394EB24220
:1019800001D1012628E0384EB24201D1022623E0DF
:10199000364EB24201D103261EE0354EB24201D18D
:1019A000042619E0334EB24201D1052614E0324E2E
:1019B000B24201D106260FE0304EB24201D10726D5
:1019C0000AE02F4EB24201D1082605E02D4EB24268
:1019D00001D1092600E00A268F073F0FBE403043A1
:1019E0001E4E8F0846F82700274E3068A0435E68D9
:1019F00006F48036B6F5803F00D12043224E306099
:101A0000361D3068A0435E6806F40036B6F5003F28
:101A100000D120431C4E361D3060361D3068A04377
:101A20005E6806F48016B6F5801F00D12043164E7E
:101A300008363060361D3068A0435E6806F4001634
:101A4000B6F5001F00D120430F4E0C363060491C04
:101A50001029FFF418AFF8BD44380240083801409F
:101A6000000002400004024000080240000C024056
:101A7000001002400014024000180240001C024006
:101A80000020024000240240003C01400AB1816174
:101A900001E00B0483617047014800687047000053
:101AA0009C00022002480068401C01490860704701
:101AB0009C0002202DE9F04103460020002293F80B
:101AC000204081F856409C8CA1F854409C6A220E1C
:101AD00094090C70C2F383044C7002F003048C7000
:101AE0009C6AC4F30742CA701C8DC4F307220A71B2
:101AF00093F828204A71DC6A220E4FF6FF7404EA3C
:101B00000214CC80DC6AC4F30742CC8844EA121485
:101B1000CC8002F00F040C729C8DC4F30722D40910
:101B20004C72C2F380148C72C2F34014CC72C2F3B4
:101B300000140C7300244C731C6A14B11C6A012C31
:101B40004DD19407240D0C612C24E25C0C6944EA0D
:101B500082040C611C6B220E0C6944EA92140C6125
:101B6000C2F3C2040C7502F007044C751C6BC4F37D
:101B7000074254098C75C2F38204CC759407640F34
:101B80000C761C8EC4F307220C7E44EAD2140C7629
:101B90000C69641C0025C1E912450C7ED1E912676D
:101BA000A41C012505FA04F44FEAE47CA6FB0458C2
:101BB00007FB048406FB0C44C1E912540D7A01248E
:101BC000AC400C650026D1E912570C6DA5FB04C88A
:101BD00007FB048405FB0644C1E912C435E01C6A16
:101BE000022C31D12C24E25C9406A40A0C611C6BFB
:101BF000220E0C6944EA02240C611C6BC4F30742F8
:101C00000C6914430C611C8EC4F307220C69002577
:101C1000641C45EB050C4FF400770026A4FB075825
:101C20000CFB078704FB067C4FF480672C46654657
:101C3000B446A4FB076805FB078504FB0C54C1E907
:101C400012647C100C6500E02920C2F3801401F8B6
:101C5000194F9406640E4C703024E25C4C7844EAD0
:101C6000D2144C7002F07F048C705C6B220ED4098D
:101C7000CC70C2F341140C71C2F382044C7194070E
:101C8000240F8C715C6BC4F307428C7944EA921484
:101C90008C71C2F34014CC7100240C7202F0010468
:101CA0004C729C8EC4F30722D4098C72C2F3801448
:101CB000CC72C2F340140C73C2F300144C73C2F321
:101CC00081048C7302F00304CC733424E25C540866
:101CD0000C7401244C749C6B220ECA7419399C6BD1
:101CE000C4F307424FF6FF7404EA0225CD851C8F2A
:101CF000C4F30722CC8D1443CC8593F83820150605
:101D00000D63DC6B220E0C6B44EA02450D63DC6B49
:101D1000C4F307420C6B44EA02250D639C8FC4F3A5
:101D200007220C6B14430C633C24E25C34246254A1
:101D30001C6C220E352462541C6CC4F30742150639
:101D40008D634024E45AC4F307228C6B44EA0245B5
:101D50008D634024E25C8C6B44EA02258D635C6CED
:101D6000220E8C6B14438C635C6CC4F307423C24DE
:101D7000645C44EA12143C256C541407250DCD878D
:101D80004424E45AC4F30722CC8F1443CC87442460
:101D9000E25C550840246554012541246554BDE8A2
:101DA000F08130B58BB004460D4600200A902077B4
:101DB000204600F045F8002004900590069007901A
:101DC00008907620099007A807C88DE807002068CA
:101DD00004A90EC901F0B0FF204602F0E1FA0A9012
:101DE0009DF8280018B19DF828000BB030BD2046A2
:101DF00002F050FA0A909DF8280010B19DF82800D2
:101E0000F3E729462046FFF755FE0A909DF8280083
:101E100040B9B5F8540001040A460023204602F0F8
:101E200075FB0A90D4E90412A069CDE90012029072
:101E300094E80F0001F080FF9DF82800D5E700002E
:101E400010B586B0044600BF2648006840F4006024
:101E5000244908600846006800F40060009000BF54
:101E600000BF00BF1F481438006840F480001D49BF
:101E7000143908600846006800F48000009000BF34
:101E800000BF00BF0846006840F004000860084634
:101E9000006800F00400009000BF00BF00BF0846CB
:101EA000006840F0080008600846006800F008007C
:101EB000009000BF00BF4FF4F85001900220029044
:101EC00001200390032004900C20059001A90648EE
:101ED000FFF7D0FC0420019001A90448FFF7CAFCD9
:101EE00006B010BD4438024000080240000C024019
:101EF00070B58AB004460D460026206A032803D137
:101F0000272630460AB070BD206A28B1206A012811
:101F100002D0206A022828D1B5F5805F01D127269A
:101F20000EE0B5F5006F04D1204602F058FB0646DE
:101F300006E025B9204602F005FB064600E026260D
:101F40009EB960680490A0680590E06806900795C7
:101F500060690890A069099007A807C88DE8070084
:101F6000206804A90EC901F0E7FE3046CAE770B543
:101F700004460CB9012070BDA06AB0F5005F00D125
:101F800000BF206B40B9E068B0F5E06F02D90221D4
:101F9000216301E00121216394F85D0028B900204C
:101FA00084F85C00204600F04FF8022084F85D00C1
:101FB0002068006820F0400021680860E068B0F503
:101FC000E06F01D9002501E04FF48055E068B0F5DD
:101FD000706F05D0E068B0F5E06F01D00021A1621C
:101FE000D4E9010108432169084361690843218B51
:101FF00001F400710843E1690843216A0843A16ABA
:10200000084321680860206B022805D12068006819
:1020100040F40060216808600421A06901EA1040D2
:10202000616A0843616B0843E168084328432168FB
:1020300048602168E06A086100202066012084F879
:102040005D00002097E700001CB504465E4800686C
:1020500040F480505C4908605B481438006840F0E8
:1020600001005949143908600846006840F008002A
:1020700008600846006840F0400008600120032125
:1020800000230222CDE9001040215048FFF776FBE3
:10209000052206214D48FFF741FB012003210023C3
:1020A0000222CDE9001080214948FFF767FB052295
:1020B00007214748FFF732FB0120032100230222BA
:1020C000CDE90010C1024348FFF758FB05220B2160
:1020D0004048FFF723FB3C48001F006840F4804065
:1020E0003949091F086038481438006840F4807086
:1020F0003549143908600120032100230222CDE96B
:10210000001004213448FFF739FB05220221324830
:10211000FFF704FB0120032100230222CDE9001078
:1021200008212D48FFF72AFB052203212A48FFF743
:10213000F5FA0120032100230222CDE90010114607
:102140002548FFF71BFB052201212348FFF7E6FA8C
:102150001D48006840F400501B4908601A481438B4
:10216000006840F01000184914390860012003216C
:1021700000230222CDE9001041031848FFF7FEFAC0
:1021800005220D211548FFF7C9FA0120032100237C
:102190000222CDE9001040211048FFF7EFFA052296
:1021A00006210E48FFF7BAFA01200321002302227C
:1021B000CDE9001004210948FFF7E0FA05220221C9
:1021C0000648FFF7ABFA1CBD44380240000002404D
:1021D000000C0240001802400020024000100240A3
:1021E0002DE9F84304460F4616461D46FFF754FCFA
:1021F00080464FF0000900BF94F85C00012802D12E
:102200000220BDE8F883012084F85C0000BF94F848
:102210005D00012802D04FF00209AFE007B116B906
:102220004FF00109AAE0032084F85D000020206639
:10223000A763A687E6872064A4F84400A4F84600B4
:10224000A068B0F5004F05D12068006840F48040D8
:1022500021680860A06AB0F5005F0ED100BF206859
:1022600000684DF6FF71084021680860206800682A
:1022700040F400502168086000BF2068006800F04A
:102280004000402805D02068006840F040002168E8
:102290000860E068B0F5E06F21D91CE02068806834
:1022A00000F0020002280AD1A06B00882168C860F3
:1022B000A06B801CA063E08F401EE0870BE03DB167
:1022C000681C40B1FFF7E8FBA0EB0800A84202D36E
:1022D0004FF0030952E0E08F0028DFDC2DE029E019
:1022E0002068806800F00200022817D1E08F0128E2
:1022F0000ADDA06B00882168C860A06B801CA06309
:10230000E08F801EE08715E0A16B481CA063087871
:1023100021680873E08F401EE0870BE03DB1681C28
:1023200040B1FFF7B9FBA0EB0800A84202D34FF081
:10233000030923E0E08F0028D2DCA06AB0F5005F3B
:1023400005D12068006840F4805021680860294663
:10235000204602F057FB08B120202066A06840B953
:1023600000BF2068C068009020688068009000BFAF
:1023700000BF206E08B14FF0010900BF012084F8B2
:102380005D0000BF002084F85C0000BF484638E7CD
:102390002DE9F84F04460F4690461D460A9EFFF76A
:1023A0007BFB81464FF0010A4FF0000B00BF94F811
:1023B0005C00012802D10220BDE8F88F012084F8DA
:1023C0005C0000BF94F85D00012802D04FF0020BC2
:1023D00087E11FB1B8F1000F00D015B94FF0010B24
:1023E0007FE1052084F85D0000202066C4F840806D
:1023F000A4F84650A4F84450A763E587A587A06ACF
:10240000B0F5005F0ED100BF206800684DF6FF7187
:102410000840216808602068006840F40050216886
:10242000086000BFE068B0F5E06F03D8B4F846007C
:10243000012806DD2068406820F48050216848604B
:1024400005E02068406840F48050216848602068BA
:10245000006800F04000402805D02068006840F087
:10246000400021680860E068B0F5E06F5FD956E091
:10247000BAF1000F31D0E08F00282EDD206880688F
:1024800000F00200022828D1A06B00882168C860F3
:10249000A06B801CA063E08F401EE0874FF0000A15
:1024A000E08FD0B9A06AB0F5005F16D1206800684F
:1024B00000F0040058B92068406800F008000828BF
:1024C00005D12068006840F4007021680860206829
:1024D000006840F4805021680860B4F84600002885
:1024E00012DD2068806800F0010068B12068C068D3
:1024F000216C0880206C801C2064B4F84600401ECB
:10250000A4F846004FF0010A701C40B1FFF7C4FA6E
:10251000A0EB0900B04202D34FF0030BE1E0E08FE3
:102520000028A5DCB4F846000028A1DC86E07DE0A8
:10253000BAF1000F3ED0E08F00283BDD20688068B4
:1025400000F00200022835D1E08F01280ADDA06BDF
:1025500000882168C860A06B801CA063E08F801E8B
:10256000E0870AE0A16B481CA06308782168087323
:10257000E08F401EE0874FF0000AE08FD0B9A06ADC
:10258000B0F5005F16D12068006800F0040058B96B
:102590002068406800F00800082805D1206800681D
:1025A00040F40070216808602068006840F48050A2
:1025B00021680860B4F8460000282CDD2068806897
:1025C00000F0010038B3B4F84600012816DD206899
:1025D000C068216C0880206C801C2064B4F8460020
:1025E000801EA4F84600B4F84600012813DC2068D9
:1025F000406840F48050216848600CE02068017B0E
:10260000226C501C20641170B4F84600401EA4F8DF
:1026100046004FF0010A701C40B1FFF73DFAA0EBF5
:102620000900B04202D34FF0030B5AE0E08F0028BC
:102630003FF77EAFB4F846000028F9DCA06AB0F599
:10264000005F33D1334601221146204602F062FA80
:1026500030B1206E40F0020020664FF0030B40E0E6
:10266000E068B0F5706F06D12068C06880B2009055
:10267000BDF800001AE02068007B0090BDF8000063
:10268000206B022812D1334601221146204602F067
:1026900041FA30B1206E40F0020020664FF0030B8B
:1026A0001FE02068007B0090BDF800002068806873
:1026B000C0F3001048B1206E40F0020020664FF6D3
:1026C000EF70216888604FF0010B3146204602F020
:1026D00099F908B120202066206E08B14FF0010B57
:1026E00000BF012084F85D0000BF002084F85C007A
:1026F00000BF584660E6042808D14FF0E021096980
:1027000041F004014FF0E022116107E04FF0E021B9
:10271000096921F004014FF0E022116170470000C7
:1027200010B502F0F5FF03480068401C014908603D
:1027300010BD00006C00022010B5FFF7F1FF10BDC6
:1027400070B504460D46164600BF94F838000128BF
:1027500001D1022070BD012084F8380000BF0220A2
:1027600084F839000C2E51D005DC4EB1042E1ED059
:10277000082E7AD133E0102E60D0142EF9D175E0F6
:102780002946206802F0D6FC2068806940F00800E5
:10279000216888612068806920F0040021688861D0
:1027A00020688069296908432168886177E02946A3
:1027B000206802F0F9FC2068806940F4006021681C
:1027C00088612068806920F48060216888612068C1
:1027D0008069296940EA0120216888615FE0294613
:1027E000206802F01FFD2068C06940F008002168E1
:1027F000C8612068C06920F004002168C8612068B1
:10280000C069296908432168C86148E029462068F1
:1028100002F046FD2068C06940F400602168C8618C
:102820002068C06920F480602168C8612068C069A0
:10283000296940EA01202168C86130E02946206802
:1028400002F060FD2068406D40F008002168486596
:102850002068406D20F00400216848652068406DC4
:10286000296908432168486519E017E0294620686E
:1028700002F074FD2068406D40F4006021684865F6
:102880002068406D20F48060216848652068406DB4
:10289000296940EA01202168486500E000BF00BFC7
:1028A000012084F8390000BF002084F8380000BF00
:1028B00000BF4FE710B504460CB9012010BD94F8D5
:1028C000390028B9002084F83800204600F00CF8C0
:1028D000022084F83900211D206802F0ABFB0120A2
:1028E00084F839000020E9E710B586B0044600BF3F
:1028F0002448006840F0010022490860084600684A
:1029000000F00100009000BF00BF00BF1D48143858
:10291000006840F001001B4914390860084600684F
:1029200000F00100009000BF00BF00BF0846006833
:1029300040F0100008600846006800F010000090A9
:1029400000BF00BF4FF4944001900220029001208C
:102950000390032004900120059001A90A48FEF786
:1029600089FF4FF4806001900220029001200390C3
:10297000032004900120059001A90448FEF77AFF86
:1029800006B010BD44380240001002400000024072
:1029900030B504460D4601222946206802F0BCFBF2
:1029A0000C492068884203D00B492068884201D135
:1029B000012000E0002028B12068406C40F4004075
:1029C000216848642068006840F0010021680860C0
:1029D000002030BD000001400004014002460023F9
:1029E00000BF92F83800012801D102207047012071
:1029F00082F8380000BF31B1042907D0082908D077
:102A00000C290CD108E01068436B09E01068836B57
:102A100006E01068C36B03E01068036C00E000BFC1
:102A200000BF00BF002082F8380000BF1846DDE775
:102A300010B580216B2000F005F9642002F022FE21
:102A40000321682000F0FEF8642002F01BFE002144
:102A50006B2000F0F7F810216A2000F0F3F8322024
:102A600002F01AFE00216C2000F0ECF8322002F097
:102A700013FE0021192000F0E5F8322002F00CFED0
:102A80000221372000F0DEF8322002F005FE03219B
:102A90001A2000F0D7F8322002F0FEFD18211B208A
:102AA00000F0D0F8322002F0F7FD10211C2000F0D9
:102AB000C9F8322002F0F0FD03211D2000F0C2F819
:102AC000052002F0DFFD00F0ABF810BD77B581B056
:102AD0000C4615469DF8040040F08000019000224D
:102AE00008210E48FEF7D2FF6423012201A90C48F9
:102AF000FFF776FB0F200190642023462A4601A9A8
:102B000000900748FFF744FC0646012208210348CD
:102B1000FEF7BCFF304604B070BD00000014024058
:102B2000F006022000B52DED068B87B00020039043
:102B3000049005900690BB200290002208213548A1
:102B4000FEF7A4FF6423012202A93348FFF748FBE4
:102B50000F20029064200E2303AA02A900902E48A1
:102B6000FFF716FC012208212A48FEF78FFF9DF887
:102B70000D009DF80C1040EA012000B208EE100A8A
:102B80009DF80F009DF80E1040EA012000B208EEFB
:102B9000900A9DF811009DF8101040EA012000B243
:102BA00009EE100A9DF815009DF8141040EA012066
:102BB00000B209EE900A9DF817009DF8161040EA41
:102BC000012000B20AEE100A9DF819009DF81810B5
:102BD00040EA012000B20AEE900AB8EEC80A0F4897
:102BE00080ED000AB8EEE80A80ED010AB8EEC90AE5
:102BF00080ED020AB8EEE90A80ED030AB8EECA0ACF
:102C000080ED040AB8EEEA0A80ED050A07B0BDECD3
:102C1000068B00BD00140240F00602202C080220A2
:102C200008B56A4601217520FFF750FF4FF4FA708E
:102C300002F028FD9DF80000122801D1012008BDF6
:102C40000020FCE713B5002208210B48FEF71EFF09
:102C50006423012269460948FFF7C2FA0446642347
:102C6000012201A90548FFF7BBFA01220821024809
:102C7000FEF70CFF20461CBD00140240F0060220A7
:102C800010B580216B2000F005F9642002F0FAFCF9
:102C90000321682000F0FEF8642002F0F3FC00211C
:102CA0006B2000F0F7F810216A2000F0F3F83220D2
:102CB00002F0F2FC00216C2000F0ECF8322002F06F
:102CC000EBFC0021192000F0E5F8322002F0E4FCD2
:102CD0000221372000F0DEF8322002F0DDFC032173
:102CE0001A2000F0D7F8322002F0D6FC18211B2061
:102CF00000F0D0F8322002F0CFFC10211C2000F0B0
:102D0000C9F8322002F0C8FC03211D2000F0C2F8EF
:102D1000052002F0B7FC00F0ABF810BD77B581B02C
:102D20000C4615469DF8040040F0800001900022FA
:102D300004210E48FEF7AAFE6423012201A90C48D3
:102D4000FFF74EFA0F200190642023462A4601A97E
:102D500000900748FFF71CFB0646012204210348A8
:102D6000FEF794FE304604B070BD0000001402402F
:102D7000F006022000B52DED068B87B000200390F1
:102D8000049005900690BB20029000220421354853
:102D9000FEF77CFE6423012202A93348FFF720FAE4
:102DA0000F20029064200E2303AA02A900902E484F
:102DB000FFF7EEFA012204212A48FEF767FE9DF88C
:102DC0000D009DF80C1040EA012000B208EE100A38
:102DD0009DF80F009DF80E1040EA012000B208EEA9
:102DE000900A9DF811009DF8101040EA012000B2F1
:102DF00009EE100A9DF815009DF8141040EA012014
:102E000000B209EE900A9DF817009DF8161040EAEE
:102E1000012000B20AEE100A9DF819009DF8181062
:102E200040EA012000B20AEE900AB8EEC80A0F4844
:102E300080ED000AB8EEE80A80ED010AB8EEC90A92
:102E400080ED020AB8EEE90A80ED030AB8EECA0A7C
:102E500080ED040AB8EEEA0A80ED050A07B0BDEC81
:102E6000068B00BD00140240F0060220500802202C
:102E700008B56A4601217520FFF750FF4FF4FA703C
:102E800002F000FC9DF80000982801D1012008BD47
:102E90000020FCE713B5002204210B48FEF7F6FDE5
:102EA0006423012269460948FFF79AF9044664231E
:102EB000012201A90548FFF793F9012204210248E4
:102EC000FEF7E4FD20461CBD00140240F00602207F
:102ED00010B5002280211248FEF748FC1048006817
:102EE00020F440300E4908600846006840F4803005
:102EF0000860002289150A48FEF738FC022002F01B
:102F0000CBFB012280210648FEF730FC022002F0B4
:102F1000C3FB002280210248FEF728FC10BD000000
:102F2000001C02401CB50E48006840F080000C49AF
:102F300008600120022100230246CDE900104FF471
:102F4000C0710848FEF71AFC012280210548FEF7EF
:102F50000DFC012211020348FEF708FC1CBD000015
:102F600030380240001C024010B500228021124877
:102F7000FEF7FCFB1048006820F440300E49086062
:102F80000846006840F480300860012289150A482C
:102F9000FEF7ECFB022002F07FFB012280210648B5
:102FA000FEF7E4FB022002F077FB002280210248BA
:102FB000FEF7DCFB10BD0000001C024070B50446AB
:102FC0000D46164600F08EF86106080E00F054F823
:102FD00000F0DCF818B100F0AFF8012070BD284611
:102FE00000F04AF800F0D2F800F07CF8012101EB83
:102FF0004401C8B200F040F800F0C8F8002000F02A
:1030000005F8307000F098F80020E7E770B5054645
:1030100000241848006820F440301649086008462B
:103020000068086000261BE0002280211148FEF79E
:103030009DFB022002F030FB012280210D48FEF7AB
:1030400095FB6006040E4FF480710A48FEF786FB7C
:1030500008B1601CC4B2012002F01EFB701CC6B295
:10306000082EE1DB15B9FFF77FFF01E0FFF730FF26
:10307000204670BD001C024070B504461848006828
:1030800020F44030164908600846006840F480305B
:103090000860002280211248FEF768FB00251CE032
:1030A000E2094FF480710E48FEF760FB6006040EE3
:1030B000022002F0F1FA012280210948FEF756FBB6
:1030C000022002F0E9FA002280210548FEF74EFBBB
:1030D000022002F0E1FA681CC5B2082DE0DB70BDE9
:1030E000001C024010B51348006820F4403011491C
:1030F00008600846006840F48030086001228915A5
:103100000C48FEF733FB012280210A48FEF72EFB14
:10311000042002F0C1FA00224FF480710548FEF746
:1031200025FB042002F0B8FA002280210148FEF7B6
:103130001DFB10BD001C024010B51348006820F4B0
:103140004030114908600846006840F4803008604B
:10315000002280210C48FEF709FB00224FF4807109
:103160000948FEF703FB042002F096FA01228021B1
:103170000548FEF7FBFA042002F08EFA0122110244
:103180000148FEF7F3FA10BD001C024010B5002400
:103190001748006820F44030154908600846006868
:1031A0000860012289151248FEF7E0FA012002F0BA
:1031B00073FA012280210E48FEF7D8FA012002F0AE
:1031C0006BFA07E0601CC4B2FA2C03DDFFF7B4FF12
:1031D000012010BD4FF480710548FEF7BFFA0028AA
:1031E000F0D1002280210248FEF7C0FA0020F0E76B
:1031F000001C024070B504460D461646FFF772FFEC
:103200006106080EFFF738FFFFF7C0FF18B1FFF7A0
:1032100093FF012070BD2846FFF72EFFFFF7B6FF92
:103220003046FFF729FFFFF7B1FFFFF785FF0020CA
:10323000F0E7000010B5002000F014F8102803D1CA
:1032400001200249087010BD0020FCE7690002203F
:1032500010B50B210A2000F05DF8052002F012FAEB
:1032600010BD000070B505460024224629460E20F8
:10327000FFF7A4FE207802490870207870BD000096
:10328000680002201CB50320FFF7ECFF8DF8010059
:103290000420FFF7E7FF8DF800009DF801009DF87E
:1032A000001040EA012000B2194908800520FFF70C
:1032B000D9FF8DF803000620FFF7D4FF8DF8020038
:1032C0009DF803009DF8021040EA012000B2104969
:1032D00048800720FFF7C6FF8DF805000820FFF79C
:1032E000C1FF8DF804009DF805009DF8041040EA28
:1032F000012000B2064988800846008808800846F8
:103300004088404200B248800846808888801CBDC2
:103310006200022070B504460D462A4621460E2062
:10332000FFF768FF70BD00001CB51748006840F04B
:103330000200154908600846006840F00400086073
:103340000120032100230246CDE9001002210F488D
:10335000FEF714FA0120032100230246CDE90010F4
:10336000C0210B48FEF70AFA012202210748FEF7A6
:10337000FDF9012240210648FEF7F8F901228021DB
:103380000348FEF7F3F91CBD303802400004024048
:10339000000802401CB51048006840F080000E494B
:1033A00008600120032100230246CDE900104FF4FC
:1033B000E0510A48FEF7E2F9012291020748FEF7C0
:1033C000D5F90122D1020548FEF7D0F901221103F7
:1033D0000248FEF7CBF91CBD30380240001C024009
:1033E00010B536480078012866D13448B0F902009B
:1033F000012804DB00203149488000F08FF82F4875
:10340000B0F90400022804DB00202C49888000F079
:10341000A1F82A48B0F90800052804DB0020274954
:10342000088100F0A6F82548B0F90A000A2804DB54
:1034300000202249488100F045F82048B0F90C00EE
:10344000142804DB00201D49888100F06BF81B481C
:10345000B0F90E00192804DB00201849C88100F0DB
:1034600077F81648B0F91000322804DB0020134921
:10347000088200F07DF81148B0F91200502804DBF2
:1034800000200E49488200F075F80C48B0F914008D
:103490005A2804DB00200949888200F06CF80748AC
:1034A000B0F91600642804DB00200449C88200F04B
:1034B00007F800200149087010BD0000180D022017
:1034C0007047000010B513480078401C114908707F
:1034D00008460078642805D1002280210E48FEF7B6
:1034E00045F913E00B48007864280FDD094800789F
:1034F000C8280BDC012280210748FEF737F9054870
:103500000078C82802D100200249087000F0E2F9D2
:1035100010BD00000E0002200008024010B5FDF7AB
:10352000A3F910BD10B5FFF7ADFE012291020748C7
:10353000FEF71CF900224FF400610448FEF716F96B
:10354000012211030148FEF711F910BD001C0240D1
:103550007047000010B5FFF7E5FAFFF70BFC0249D2
:103560000248FDF73FF810BD0800022002000220CB
:10357000704770477047704722484088401C00B22F
:103580002049488008468088401C00B28880084650
:10359000C088401C00B2C88008460089401C00B2A8
:1035A000088108464089401C00B24881084680894D
:1035B000401C00B288810846C089401C00B2C88106
:1035C0000846008A401C00B208820846408A401C17
:1035D00000B248820846808A401C00B288820846B1
:1035E000C08A401C00B2C88208460078012804D175
:1035F00008464078401C487002E0012001490870EC
:1036000070470000180D02202DE9FE4F0027029799
:103610000197614F3F783F04DFF87CC19CF801C0FF
:1036200047EA0C27DFF870C19CF802C047EA0C0794
:10363000DFF868C1CCF80070594F3F783F04DFF8DD
:1036400060C19CF801C047EA0C27DFF854C19CF820
:1036500002C047EA0C07DFF84CC1CCF80070524FAB
:103660007F89DFF838C1DCF800C0ACEB07204E4F93
:10367000BF883F044FF00008DFF82CC1BCF808C039
:103680004FEAE07AACFB00BE08FB00E90CFB0A99AC
:103690004FEADB1C4CEA496C17EB0C0348EBE914CE
:1036A000414F7F884FEAC737DFF8FCC0BCF806C03F
:1036B0004FEAE07AACFB00BE08FB00E90CFB0A997C
:1036C0004FEA1B2C4CEA096C17EB0C0548EB29263A
:1036D000354FBF894FEAE079A7FB00CA08FB00A875
:1036E00007FB09874FEA472848EADC574FF4FA6C92
:1036F00017EB0C01B1F5FA6F26DAA1F5FA6202EBCD
:1037000082077A435710DB1B64EBE7744FEAA2078A
:10371000ED1B66EBE776254FB94211DA01F2DC5278
:103720005243C2EBC207DB1B64EBE77402EB4207B8
:1037300007EBC2074FEA670CB5EB0C0566EBEC76BE
:1037400000FB00F7A1EBE771164F3F684FF0000C4C
:10375000A7FB05890CFB059C07FB06CC4FEA5857D5
:1037600047EACC274FEA6C58BC46BCEB030C68EB2D
:1037700004074FEA474848EADC370097DFF830C0D3
:10378000009FCCF8007000EE101AB8EEC00A094F86
:1037900087ED000ABDE8FE8F440002203C000220B5
:1037A00047000220400002201C08022024FAFFFFEC
:1037B000280002204C00022010B50A2001F062FF10
:1037C00000F072F8032001F05DFF00F047F808B93F
:1037D000012000E000200249087000F075F810BDDB
:1037E0004A00022077B581B00C46154600224FF4FE
:1037F00080610E48FEF74AF96423012201A90C48B2
:10380000FEF7EEFC0F20019064202B46224601A912
:1038100000900748FEF7BCFD0646012291020348CE
:10382000FEF734F9304604B070BD000000140240C9
:10383000B807022010B5032202490020FFF7D2FF8B
:1038400010BD00004700022010B5032202490020ED
:10385000FFF7C8FF10BD00004400022038B500206B
:1038600000900025002414E0A02101EB4401C8B21F
:1038700002226946FFF7B6FF2844C5B29DF8010051
:103880009DF8001040EA0120064921F81400601C50
:10389000C4B2082CE8DB082D01D1012038BD00207E
:1038A000FCE700001C08022010B501211E2000F0DA
:1038B0002BF84FF42F6001F0E5FE10BD10B501218B
:1038C000482000F021F810BD10B50121582000F06B
:1038D0001BF810BD10B50B48006848B1FFF7AAFFF0
:1038E000FFF7F2FFFFF790FE00200649086006E0B0
:1038F000FFF7AAFFFFF7E2FF012002490860014835
:10390000006810BD5000022070B505460C4600222C
:103910004FF480610848FEF7B9F8284601F022F814
:103920000646204601F01EF8012291020248FEF7E9
:10393000ADF8304670BD0000001402402DE9F041A2
:103940000746884614461D46284600F033F8C5F160
:10395000040007FA00F60F20284100EA0800064399
:1039600006F00F06E21704EBD2625211920002F148
:10397000E022D2F800212146E31704EBD3635B1168
:10398000A4EB431C012303FA0CF31A432046E3176C
:1039900004EBD3635B119B0003F1E023C3F8002128
:1039A0000348005D40EA061001490855BDE8F08172
:1039B00000E400E00146072323EA01021202054B5E
:1039C00018684FF6FF031840034B18431043014B90
:1039D000186070470CED00E00000FA054A0A520238
:1039E0000243014B1A60704708ED00E01E48007862
:1039F00000F08000002835D01C48007801280CD148
:103A00001B4801881B4A1C480078401C22F81010F3
:103A100019480078401C1849087013480078042899
:103A200001DA012000E0002000F0010028B9104870
:103A3000008840F6B831884204DD0C480078401C0C
:103A40000A49087009480078022808D1002007496F
:103A500008700120074908800020074908700020ED
:103A600001490870704700007000022071000220B8
:103A700074000220E00802207200022000B585B028
:103A800001F09AF841F2941010225B49009001A8CD
:103A9000FCF731FC01A80FC800F0BEF841F2941009
:103AA00010225649009001A8FCF725FC01A80FC878
:103AB00000F0B2F841F2941010225149009001A890
:103AC000FCF719FC01A80FC800F0A6F84FF47A70B3
:103AD00010224C49009001A8FCF70DFC01A80FC86A
:103AE00000F0A8F84FF47A7010224749009001A81E
:103AF000FCF701FC01A80FC800F09CF84FF47A70A5
:103B000010224249009001A8FCF7F5FB01A80FC85C
:103B100000F090F84FF47A7010223D49009001A80F
:103B2000FCF7E9FB01A80FC800F084F84FF47A70A5
:103B300010223849009001A8FCF7DDFB01A80FC84E
:103B400000F078F8142010222B49009001A8FCF70F
:103B5000D2FB01A80FC800F068F8142010222749F2
:103B6000009001A8FCF7C7FB01A80FC800F05DF8A2
:103B70001E2010222349009001A8FCF7BCFB01A8DD
:103B80000FC800F052F8142010221D49009001A81F
:103B9000FCF7B1FB01A80FC800F047F80020102285
:103BA0001949009001A8FCF7A6FB01A80FC800F076
:103BB0003CF8002010221549009001A8FCF79BFB5F
:103BC00001A80FC800F031F8002010221049009021
:103BD00001A8FCF790FB01A80FC800F026F8002010
:103BE00010220C49009001A8FCF785FB01A80FC822
:103BF00000F01BF805B000BD0001022010010220FA
:103C00003001022020010220400102205001022048
:103C100060010220700102201FB5069C00208DF873
:103C20000F0020B2ADF80A001FBD1FB5069CADF80D
:103C30000C401FBD1FB5069C01208DF80F0020B25F
:103C4000ADF80A001FBD000010B50023234C23600F
:103C500000BF00BF00BFBFF34F8F00BF00BF00BF5A
:103C6000231F1868C0F34E3100BFC0F3C90200BF64
:103C700043F6E07303EA41134FF0404404EA8274D0
:103C80002343174C236000BF00BF131EA2F10102A3
:103C9000EED10B1EA1F10101E7D100BF00BF00BFB3
:103CA000BFF34F8F00BF00BF00BF0C4B703B1B68C2
:103CB00043F48033094C703C236000BF00BF00BF59
:103CC000BFF34F8F00BF00BF00BF00BF00BF00BFEA
:103CD000BFF36F8F00BF00BF00BF10BD84ED00E0D9
:103CE00060EF00E010B502460023086850624868A3
:103CF0009062D1E9020420430C6920434C692043BF
:103D00000343D06A20F0F7001843D062002010BDB2
:103D100001460869C0B270470146086800F0030018
:103D2000704708B502460020009002F114000844D4
:103D300000900098006808BD0FB410B5044600213B
:103D4000DDE903021043059A1043069A1043079ACF
:103D50001043089A10430143606847F6FF6290439E
:103D600008436060002010BC5DF814FB014603208E
:103D70000860002070470146D1F88000704710B5F8
:103D80000246002308689060D1E901042043CC6812
:103D900020430C6920430343D0686FF30B001843A2
:103DA000D060002010BD30B5014600204FF48032B5
:103DB0000C68646BC4F3C01304E00C68646BC4F358
:103DC000C013521E0AB1002BF7D00AB9032030BD30
:103DD00040F2FF540D68AC6300BFF8E72DE9F041F5
:103DE00005460E46002700BF2868406B00F04500DE
:103DF0000028F9D02868406B00F0040030B1032798
:103E00000420296888633846BDE8F0812868406B43
:103E100000F0010028B10127012029688863384695
:103E2000F2E72868FFF774FFB04202D01027384647
:103E3000EAE740F2FF502968886300212868FFF70D
:103E400070FF04464548204008B93846DCE704F0D6
:103E50000040B0F1004F01D11C20D5E704F08040B4
:103E6000B0F1804F01D10920CEE704F00050B0F14D
:103E7000005F01D10A20C7E704F08050B0F1805FF5
:103E800001D10B20C0E704F00060B0F1006F01D158
:103E90000C20B9E704F08060B0F1806F01D10D20F3
:103EA000B2E704F08070B0F1807F01D10E20ABE763
:103EB00004F40000B0F5000F01D10F20A4E704F4D2
:103EC0008000B0F5800F01D110209DE704F40010B0
:103ED000B0F5001F01D1112096E704F48010B0F571
:103EE000801F01D112208FE704F40020B0F5002FCD
:103EF00001D1132088E704F48020B0F5802F01D190
:103F0000142081E704F40030B0F5003F01D1152002
:103F10007AE704F48030B0F5803F01D1162073E7D2
:103F200004F40040B0F5004F01D117206CE704F411
:103F30008040B0F5804F01D1182065E704F40050AF
:103F4000B0F5005F01D119205EE704F008000828F1
:103F500001D11A2058E7384656E7000008E0FFFD77
:103F60000146002000BF0A68526B02F04502002A99
:103F7000F9D00A68526B02F0040222B10320042235
:103F80000B689A6370470A68526B02F0010222B113
:103F9000012001220B689A63F4E740F2FF520B689C
:103FA0009A6300BFEEE70146002000BF0A68526B2B
:103FB00002F04502002AF9D00A68526B02F00402AE
:103FC00022B1032004220B689A63704740F2FF522B
:103FD0000B689A6300BFF8E72DE9F04104460E46EE
:103FE00017464FF0000800BF2068406B00F0450006
:103FF0000028F9D02068406B00F0040038B14FF081
:1040000003080420216888634046BDE8F0812068E9
:10401000406B00F0010030B14FF001080120216831
:1040200088634046F1E72068FFF772FEB04203D094
:104030004FF010084046E8E740F2FF5021688863DF
:1040400000212068FFF76DFE054605F4604018B9B1
:10405000280C38804046D8E705F40050B0F5005FE2
:1040600001D11320D1E705F48040B0F5804F01D194
:104070001020CAE705F40040B0F5004F01D10F2031
:10408000C3E74046C1E730B5014629204FF48032EE
:104090000C68646B04F045040CB1012400E00024BA
:1040A000234609E00C68646B04F045040CB101245C
:1040B00000E000242346521E0BB9002AF2D10C68FE
:1040C000646BC4F3800302B123B1032004240D68A0
:1040D000AC6330BD0C68646B04F0400424B1002074
:1040E00040240D68AC63F4E700BFF2E7F0B58DB093
:1040F00004460E460025002700200090019008206D
:1041000008901020099040200A9000200B904FF456
:1041100080600C9008A92068FFF731FE102120462E
:10412000FFF75CFE054615B128460DB0F0BDA08C2A
:10413000000408903720099008A92068FFF71FFEA7
:1041400037212046FFF74AFE05460DB12846ECE729
:104150004FF0FF300290082003903020049002209E
:104160000590002006900120079002A92068FFF723
:10417000B9FD002008903320099008A92068FFF7B6
:10418000FEFD33212046FFF729FE05460DB12846E6
:10419000CBE70AE02068406B00F4001028B12068EB
:1041A000FFF7E9FD4DF827007F1C2068406B40F2C7
:1041B0002A4108400028EDD02068406B00F008003C
:1041C00028B108202168886304252846ADE72068C7
:1041D000406B00F0020028B10220216888630225AC
:1041E0002846A2E72068406B00F0200028B120207C
:1041F000216888630625284697E740F2FF5021682A
:10420000886300980006009901F47F4140EA01208C
:10421000009901F47F0140EA1120009940EA116001
:10422000706001980006019901F47F4140EA012085
:10423000019901F47F0140EA1120019940EA1160DF
:104240003060284671E7000010B50F480F4908603C
:104250000020486000210D488160C160016141611A
:1042600081610B49FDF79DFD04460CB1012010BD95
:104270004FF400610548FDF73BFE04460CB10220F7
:10428000F5E70020F3E70000002C0140A009022020
:10429000000A022030B587B00446002501200190B5
:1042A0002068FFF739FD18B92525284607B030BD2D
:1042B000206A042829D00020029002200390C02008
:1042C0000490002005904FF48060069002A92068B9
:1042D000FFF755FD2046FFF743FE05460DB1284682
:1042E000E4E700212068FFF71CFDA063042120689B
:1042F000FFF717FDE06308212068FFF712FD206437
:104300000C212068FFF70DFD6064206A40B1206A2F
:10431000012805D0206A062802D0206A022810D180
:10432000032003904020049002A92068FFF727FD96
:1043300001AA03212046FFF74FFE05460DB128468E
:10434000B4E7206A042828D0BDF804006062A08C7D
:104350000004029009200390C020049002A9206864
:10436000FFF70DFD2046FFF7FBFD05460DB1284682
:104370009CE700212068FFF7D4FCA062042120689C
:10438000FFF7CFFCE06208212068FFF7CAFC20633A
:104390000C212068FFF7C5FC6063284686E7000013
:1043A0002DE9F04186B0044600200090002600254B
:1043B000002780462068406820F4807021684860AB
:1043C0002068FFF7D3FC0120FDF747FA206840681A
:1043D00040F48070216848600020019002900390B2
:1043E00004904FF48060059001A92068FFF7C7FC96
:1043F0002046FFF7D8FC00909DF8000020B19DF802
:10440000000006B0BDE8F0814FF4D570019008209F
:1044100002904020039001A92068FFF7B0FC2046DD
:10442000FFF731FE00909DF8000018B901202062CE
:104430004FF08048002001903720029001A92068A9
:10444000FFF79DFC37212046FFF7C8FC00909DF840
:104450000000002855D13FE0002001903720029055
:1044600040200390002004904FF48060059001A943
:104470002068FFF784FC37212046FFF7AFFC00904F
:104480009DF8000010B19DF80000BAE71E4848EA08
:104490000000019029200290402003900020049009
:1044A0004FF48060059001A92068FFF768FC204662
:1044B000FFF779FD00909DF8000010B19DF8000015
:1044C0009FE700212068FFF72CFC0646012080EAC8
:1044D000D67080F001076D1C1FB94FF6FF70854242
:1044E000BAD34FF6FF70854204D31B2000909DF88D
:1044F000000086E706F08040B0F1804F01D1022035
:1045000020629DF800007CE700001080F0B585B0C7
:10451000064614461D4600270094072001904020BF
:104520000290002003904FF4806004906946306848
:10453000FFF725FC07213046FFF750FC07463846B9
:1045400005B0F0BD30B587B00446002500200090CE
:10455000019000212068FFF7E4FB00F00070B0F14B
:10456000007F03D10E25284607B030BD694620469E
:10457000FFF7BCFD05460DB12846F5E7019800F4AC
:10458000803048B3A08C0004029037200390402074
:104590000490002005904FF48060069002A92068E6
:1045A000FFF7EDFB37212046FFF718FC05460DB15C
:1045B0002846D9E7002002900620039002A920682F
:1045C000FFF7DDFB06212046FFF708FC05460DB18D
:1045D0002846C9E72846C7E725252846C4E730B559
:1045E00087B004460025002000900190002120683B
:1045F000FFF797FB00F00070B0F1007F03D10E25AC
:10460000284607B030BD69462046FFF76FFD0546D6
:104610000DB12846F5E7019800F4802048B3A08C3E
:104620000004029037200390402004900020059061
:104630004FF48060069002A92068FFF7A0FB3721A5
:104640002046FFF7CBFB05460DB12846D9E70220EF
:1046500002900620039002A92068FFF790FB062134
:104660002046FFF7BBFB05460DB12846C9E72846A3
:10467000C7E725252846C4E710B51848006840F468
:104680008050164908601648164908604FF4827039
:1046900048600021134881604FF4E061C16002214D
:1046A000016101214161490281613821C16100211B
:1046B0000162416281620721C162FDF758FC08482E
:1046C000006840F0400006490860FF2000F056F8FE
:1046D000072000F063F800F007F810BD44380240EE
:1046E00000300140F00602201CB52148006840F06F
:1046F00020001F4908600120032100230246CDE964
:10470000001004211B48FDF739F801200321002384
:104710000246CDE9001008211648FDF72FF80120C8
:10472000032100230246CDE9001010211148FDF7B6
:1047300025F80120032100230246CDE90010810263
:104740000D48FDF71BF8012204210A48FDF70EF879
:10475000012208210748FDF709F801221021054828
:10476000FDF704F8012291020348FCF7FFFF1CBD8E
:1047700030380240001402400018024001B582B0F7
:104780004FF47A70012301AA02A900900248FDF7B4
:10479000FFFD9DF804000EBDF006022000F00700AA
:1047A000084909684FF6C7721140064A1160114660
:1047B000096841EAC00111601146096841F04001F1
:1047C000116070470030014010B51848006840F48F
:1047D0008040164908601648164908604FF48270F8
:1047E00048600021134881604FF4E061C1600021FE
:1047F000016141614FF4007181613821C161002183
:104800000162416281620721C162FDF7B0FB084885
:10481000006840F0400006490860FF2000F028F8DA
:10482000072000F035F800F007F810BD40380240CE
:1048300000380040540702201CB50B48006840F0C7
:104840002000094908600120032100230246CDE928
:10485000001020210548FCF791FF01222021034888
:10486000FCF784FF1CBD00003038024000140240F9
:1048700001B582B04FF47A70012301AA02A9009019
:104880000248FDF785FD9DF804000EBD5407022087
:1048900000F00700084909684FF6C7721140064A40
:1048A00011601146096841EAC001116011460968AA
:1048B00041F04001116070470038004010B51848C1
:1048C000006840F400501649086016481649086010
:1048D0004FF4827048600021134881604FF4E0611A
:1048E000C1600221016101214161490281613821D8
:1048F000C16100210162416281620721C162FDF74D
:1049000036FB0848006840F0400006490860FF2078
:1049100000F028F8072000F03FF800F007F810BD7D
:104920004438024000340140B80702201CB50B484F
:10493000006840F02000094908600120032100239D
:104940000246CDE9001081020548FCF717FF01225D
:1049500091020348FCF70AFF1CBD000030380240FA
:1049600000140240014600BF0A48006800F002003F
:104970000028F9D00748001D016000BF0548006805
:1049800000F001000028F9D00248001D0068C0B204
:10499000704700000834014000F00700084909682A
:1049A0004FF6C7721140064A11601146096841EA84
:1049B000C00111601146096841F040011160704763
:1049C0000034014013B500224FF480610B48FDF71D
:1049D0005DF86423012269460948FDF701FC04469D
:1049E0006423012201A90648FDF7FAFB0122910286
:1049F0000248FDF74BF820461CBD0000001802409D
:104A0000F006022070B504460D462B4600224FF4F6
:104A1000C051204600F024F828B1206E40F020005C
:104A20002066032070BD2B4600224FF4C061204653
:104A300000F016F828B1206E40F020002066032018
:104A4000F0E72B4600228021204600F063F828B1D1
:104A5000206E40F0200020660320E3E70020E1E71D
:104A60002DE9F84304460E4617461D46FDF714F897
:104A7000804648E0B6F5C06F05D127B92068007BB5
:104A800000909DF80000681CE0B32DB1FDF704F81C
:104A9000A0EB0800A84236D32068406820F0E00070
:104AA000216848606068B0F5827F0DD1A068B0F5DC
:104AB000004F03D0A068B0F5806F05D12068006872
:104AC00020F0400021680860A06AB0F5005F0ED1B8
:104AD00000BF206800684DF6FF710840216808603B
:104AE0002068006840F400502168086000BF012081
:104AF00084F85D0000BF002084F85C0000BF032044
:104B0000BDE8F883FFE7206880683040B842B1D143
:104B10000020F5E72DE9F04104460E4617461D46F4
:104B2000FCF7BAFF80463FE0681CE0B32DB1FCF70C
:104B3000B3FFA0EB0800A84236D32068406820F0FD
:104B4000E000216848606068B0F5827F0DD1A06800
:104B5000B0F5004F03D0A068B0F5806F05D1206894
:104B6000006820F0400021680860A06AB0F5005F8E
:104B70000ED100BF206800684DF6FF710840216823
:104B800008602068006840F400502168086000BF99
:104B9000012084F85D0000BF002084F85C0000BFA5
:104BA0000320BDE8F081FFE7206880683040B8420C
:104BB000BAD10020F5E7000010B502496C2000F0E2
:104BC0008DFC10BDA086010070B5CCB04FF496717D
:104BD00001A8FBF707FC0026284800780F2847D1DA
:104BE00027480078192843D1002414E02349601C89
:104BF0000E5C00250CE046FA05F000F0010008B15B
:104C0000312000E0302005EBC40101AA50546D1C96
:104C1000082DF0DB641C162CE8DB1A48002101602B
:104C200041608160002421E000251CE004EB440089
:104C300000EBC400284401A9085C312809D11148BF
:104C400050F824000121A94008430E4941F82400EE
:104C500008E00C4850F824000121A9408843094984
:104C600041F824006D1C0B2DE0DB641C0C2CDBDBFD
:104C70000020034908704CB070BD0000F005022010
:104C800020000220740802202DE9F04104460D4660
:104C900016461F461548006840F001001349086099
:104CA0000020124908310860104800681049084087
:104CB0000E4908600F48091D0860081F006820F4AD
:104CC0008020091F0860002008490C310860FBF7AC
:104CD0008FFD3B4632462946204600F01DF8002154
:104CE0004FF00060FEF77AFEBDE8F0810038024028
:104CF000FFFFF6FE1030002410B5FCF7D3FEFDF7E1
:104D00001BFD04480068401C0249086000F052FB8B
:104D100010BD000094000220F0B504460D460021AD
:104D200000203F4E366846F480363D4F3E6001E03D
:104D30004E1CB1B23A4E366806F400361EB941F642
:104D4000FF76B142F4DB41F6FF76B14201D101209A
:104D500065E0334E4036366846F08056304F403777
:104D60003E60304E366846F440462E4F3E603E462A
:104D7000366846F480363E603E46366846F4003675
:104D80003E60274E0836366846F41446244F0837EE
:104D90003E60234E366826F08076214F3E6045EA1D
:104DA00084160127C7EB520746EA074646EA036620
:104DB00046F480061A4F3F1D3E603E1F366846F09F
:104DC00080763F1F3E6000BF154E366806F00076C5
:104DD000002EF9D0144E366846F48076124F3E60AD
:104DE0003E46366846F400763E603E46366846F0FB
:104DF00007063E600A4E0836366826F00306084F5E
:104E000008373E603E46366846F002063E6000BF08
:104E1000034E0836366806F00C06082EF8D1F0BDB1
:104E20000038024000700040003C024070B5064669
:104E30000D46144633483449086008464560002151
:104E40008160C6600161FDF735FD60202F49086073
:104E5000084644600020886000222B48FDF770FC63
:104E600029480068406C40F40040274909684864BC
:104E700000212548FDF78CFD602024490860084684
:104E800044600020886004221F48FDF759FC1E483A
:104E90000068406C40F400401B49096848640421E4
:104EA0001948FDF775FD6020184908600846446000
:104EB0000020886008221448FDF742FC1248006870
:104EC000406C40F4004010490968486408210E48CD
:104ED000FDF75EFD60200D49086008464460002033
:104EE00088600C220848FDF72BFC07480068406CDE
:104EF00040F400400449096848640C210248FDF769
:104F000047FD70BD00000140F40802203009022076
:104F100010B54448007800F0800000287BD142485A
:104F2000006800F0010000B33F48001F006800F077
:104F30000100D0B13B48007800F04000A8B13948EA
:104F4000007800F03F003F280AD13648007840F052
:104F50008000344908704FF6FF703449088004E03F
:104F600030480078401C2F4908702F48006800F036
:104F7000020000284FD02C48001F006800F00200FB
:104F8000002848D02748007800F04000D8B12548D4
:104F9000007840F080002349087004212448FDF780
:104FA0001DFD2249088022480068006A4FF65F71A3
:104FB00008401F49096808621D480068006A1C49CA
:104FC0000968086227E00020164908701749088020
:104FD0001448007840F0400012490870002014493D
:104FE0000968486212480068006A4FF65F7108401D
:104FF0000F49096808620E480068006A40F0200006
:105000000B49096808620A480068006840F001001E
:10501000074909680860FEF7E9FC4FF6FC70024991
:10502000086010BD700002201008004074000220CB
:10503000A4080220002202682C4B98420ED0B0F146
:10504000804F0BD02A4B984208D02A4B984205D06B
:10505000294B984202D0294B984201D1012300E00C
:1050600000231BB122F070024B681A431F4B984279
:1050700020D0B0F1804F1DD01D4B98421AD01D4B4F
:10508000984217D01C4B984214D01C4B984211D018
:105090001B4B98420ED01B4B98420BD01A4B984298
:1050A00008D01A4B984205D0194B984202D0194BA0
:1050B000984201D1012300E000231BB122F4407289
:1050C000CB681A4302608B68C3620B688362074B2C
:1050D000984202D0094B984201D1012300E00023FD
:1050E0000BB10B690363012343617047000001406A
:1050F0000004004000080040000C00400004014093
:1051000000400140004401400048014000180040B8
:10511000001C00400020004030B50023012404FAA8
:1051200001F3046A9C430462046A02FA01F52C4309
:10513000046230BD30B5002400220023056A25F04A
:1051400001050562026A43688469144D2C4024F00D
:1051500003040D682C4322F002028D682A43104D8F
:10516000A84202D00F4DA84201D1012500E0002540
:105170006DB122F00802CD682A4322F0040223F424
:10518000807323F400734D692B438D692B43436077
:1051900084614D684563026230BD00008FFFFEFFF1
:1051A000000001400004014030B50024002200232B
:1051B000056A25F010050562026A43688469164D88
:1051C0002C4024F440740D6844EA052422F02002A7
:1051D0008D6842EA0512114DA84202D0104DA84236
:1051E00001D1012500E0002585B122F08002CD68C3
:1051F00042EA051222F0400223F4806323F40063A4
:105200004D6943EA85038D6943EA85034360846100
:105210004D688563026230BDFF8FFFFE00000140D4
:105220000004014030B5002400220023056A25F463
:1052300080750562026A4368C469164D2C4024F0EB
:1052400003040D682C4322F400728D6842EA0522A3
:10525000114DA84202D0114DA84201D1012500E014
:10526000002585B122F40062CD6842EA052222F4CD
:10527000806223F4805323F400534D6943EA0513FD
:105280008D6943EA05134360C4614D68C5630262DA
:1052900030BD00008FFFFEFF000001400004014010
:1052A00030B5002200230024056A25F480550562EC
:1052B000036A4468C269104D2A4022F440720D68A6
:1052C00042EA052223F400538D6843EA05330B4D6F
:1052D000A84202D00A4DA84201D1012500E00025D4
:1052E00025B124F480444D6944EA85144460C261C8
:1052F0004D680564036230BDFF8FFFFE0000014072
:105300000004014030B5002400220023056A25F482
:1053100080350562026A4368446D0D4D2C400D686E
:105320002C4322F400320D8942EA0542094DA8427D
:1053300002D0094DA84204D123F480334D6943EAD9
:105340000523436044654D688565026230BD0000F9
:105350008FFFFEFF000001400004014030B5002433
:1053600000220023056A25F480150562026A43685D
:10537000446D0D4D2C400D6844EA052422F40012C2
:105380000D8942EA0552094DA84202D0084DA842B3
:1053900004D123F480234D6943EA852343604465A7
:1053A0004D68C565026230BDFF8FFFFE0000014001
:1053B0000004014000B51C48006840F2E731884213
:1053C00007DA19480068401C17490860FEF7D4F84E
:1053D00029E0002014490860144800683B2805DAD9
:1053E00012480068401C114908601CE000200F4969
:1053F00008600F4800683B2805DA0D480068401C2B
:105400000B4908600FE0002009490860094800685E
:10541000172805DA07480068401C0649086002E0C2
:1054200000200449086000BD900002208C0002208A
:10543000880002208400022010B52248006800F095
:10544000080018B11F4808300068C4B21D481C3855
:10545000006800F0200078B11A48006800F02000D1
:1054600050B14FF6DF7017490860164808300068E1
:10547000C4B22046FBF72AFC12481C38006800F032
:105480008000E8B10F48006800F08000C0B10E480D
:1054900001780078401C0C4A10700C48405C0949A7
:1054A0000C3108601046007809490978884207D114
:1054B00004481C38006820F0800002491C3908604C
:1054C00010BD00001C44004012000220F002022027
:1054D0001300022010B500F087F810BD7CB505461A
:1054E0000C462B48684300EB5400B0FBF4F6294807
:1054F000006840F00800274908602648103000681E
:1055000040F480202349103108600120022100234B
:105510000A46CDE900104FF440711F48FCF72EF900
:10552000072208211C48FCF7F9F8072209211A482C
:10553000FCF7F4F819480660002018490C39086097
:105540000846006808600846006808600846006869
:1055500008600846006840F00800086008460068D7
:1055600040F0040008600846006840F02000086031
:105570000223272203211846FEF7E0F907480C38DA
:10558000006840F0010005490C3908607CBD00004E
:1055900040420F0030380240000C02400C480040EE
:1055A00070B5024600200AE0145C0C4B1D781B7895
:1055B0005B1C0A4E33700A4B5C55431CD8B28842C0
:1055C000F2DB084B1B6803F080032BB9054B1B680B
:1055D00043F08003034C236070BD000013000220E1
:1055E000F00202200044004000B50948006800F0C5
:1055F000200058B1064808300068C3B2184600F0D1
:1056000009F86FF0200002490831086000BD000071
:105610001C4800400021064A11600649064A1278DB
:10562000885405490978491C034A117070470000E5
:1056300018000220F00502202000022000BF704761
:1056400070B504460420FDF756F80C480460254662
:105650004FF47A7045430120094908604FF0E0207B
:10566000006940F002004FF0E02108610846456102
:10567000006940F00100086170BD00007C0002205C
:105680008000022010B504464FF47A7104FB01F04B
:1056900000F002F810BD000070B5034600224FF084
:1056A000E02675690D4E366803FB06F44FF0E026E0
:1056B000B16910E04FF0E026B06988420BD0884213
:1056C00002D20E1A324402E02E1A0E44324401462F
:1056D000A24200D300E0EDE700BF70BD7C000220D5
:1056E00030B50B46036082800024C4800481002111
:1056F00004E0002405686C544C1CA1B29142F8DB14
:1057000030BDFAF7F1FF01E0FDF76AFEFCE70000AB
:1057100010B507480068401C054908600846006845
:10572000022804D1012003490860FFF74DFA10BD9B
:10573000180002201C0002204FF04070E1EE100A19
:1057400070477F7F7F7F7F7FC22100006C570008FA
:1057500000000220C4000000340200083058000895
:10576000C4000220AC170000500200080000000036
:105770000000000000000000000000000000000029
:105780000000000000000000000000000000000019
:105790000000000000000000000000000000000009
:1057A00000000000000000000000000000000000F9
:1057B00000000000000000000000000000000000E9
:1057C00000D2000000000000000000000000000007
:1057D00000000000000000000000000000000000C9
:1057E0000000000000E6DF0C0000000000000000E8
:1057F00000000000000000000000000000000000A9
:105800000000000000000000000000000000000098
:105810000000000000000000000000000000000088
:105820000000000A320A0F14143232C800000000CF
:04000005080001F9F5
:00000001FF
